:03000000020528CE
:0100030032CA
:03000B000200F4FC
:0100130032BA
:01001B0032B2
:0100230032AA
:03002B0002018649
:10002E00C00078B10000D8FCD00022C000C0017919
:10003E002D78A6D8FED9FADAF6D001D00022D294C5
:10004E0012002EC29422A2E792B5A2E692B4A2E5C5
:10005E0092B3A2E492B212004C12002EA2E392B519
:10006E00A2E292B4A2E192B3A2E092B212004C22AA
:10007E00D292020054C292020054C294C2937433BC
:10008E0012008374331200837432120083742812A8
:10009E000083740C1200837401120083C0027A0272
:1000AE00120039D00222E493600612007EA380F67D
:1000BE002244404480020083C0E0E8C4540F443020
:0E00CE0012007EE8540F443012007ED0E02273
:1000DC00E58954F04401F589758CA9758A9AD2A9E1
:1000EC00D28CE4F53FF54022C0E0C0D0C28C758CB8
:1000FC00A9758A9AD28C053FE53F70020540E53F11
:10010C00B4F40CE540B40107054AE4F53FF540D0E2
:10011C00D0D0E032D2A2C2A32279DE78A6D8FED902
:10012C00FAC28E53890F438920438780758DF475ED
:10013C008BF4D28E759852223099FDC299F5992282
:10014C00E4936006120144A380F622C0E079007AA1
:10015C0008E833F892A1D2A3A2A2E933F9C2A3DA38
:10016C00F0D0E0220D0A0075C80075CBA975CA9AAB
:10017C00E4F53DF53ED2ADD2CA22C2CFB283C0E087
:10018C00C0D0053DE53D7002053EC3E53D9544E517
:10019C003E95459282E53DB4F40CE53EB40107D2A0
:1001AC0000E4F53DF53ED0D0D0E032C2AF759658A4
:1001BC0090000074FFF0759638E542F0A37455F08A
:1001CC00A374AAF075961874FFF0759600D2AF223E
:1001DC00759608900001E0B4550FA3E0B4AA0A90FC
:1001EC000000E0F5427596002275427B7596002260
:1001FC0075F06484443012007EE5F075F00A844496
:0C020C003012007EE5F0443012007E222B
:10021800C0E0E8C4540F4430120144E8540F44309D
:10022800120144D0E022C2A07801120157E5F0C4BF
:1002380054F0D2E7F8120157E95403FF7855120138
:1002480057D2A022C0E0C0D0C000C001C002E4F56F
:1002580038F539F53AF53BF53C7A20E533A2E779EC
:10026800047830E633F608D9FA79057838E636D4D2
:10027800F608D9F9DAE5D002D001D000D0D0D0E024
:1002880022C0E0C0D0C000C001C002E4F538F53992
:10029800F53AF53BF53C7A20E533A2E77904783066
:1002A800E633F608D9FA79057838C0D0E624332041
:1002B800E70224D020E30224FDD0D033F608D9EA9F
:1002C800DAD6D002D001D000D0D0D0E022C0E0C031
:1002D800D0C000C001C0027A207905C3783CE6137B
:1002E800C0D030E70224D030E30224FDF618D0D085
:1002F800D9EC79047833E613F618D9FADADBD002A8
:10030800D001D000D0D0D0E022C0E0C0D0E5302568
:1003180034F530E5313535F531E5323536F532E548
:10032800333537F533D0D0D0E022C0E0C0D0C3E5B4
:10033800309534F530E5319535F531E5329536F5BA
:1003480032E5339537F533D0D0D0E022C0E0C0D0C5
:10035800C3E5309534E5319535E5329536E5339585
:10036800379201D0D0D0E022C0E0C0D0C3E53495A8
:1003780030E5359531E5369532E53795339201D03C
:10038800D0D0E022C0E0C0D0C201C3E534953070BF
:1003980014E5359531700EE53695327008E53795D8
:1003A800337002D201D0D0D0E02212038C20010396
:1003B8000203702212038C20010302035422C0E0BE
:1003C800C0F0C0D0C000C001C002C003E530853411
:1003D800F0A4F8A9F0E5318534F0A429F9E435F062
:1003E800FAE5308535F0A429F9E5F03AFAE433FB6B
:1003F800E5328534F0A42AFAE5F03BFBE531853592
:10040800F0A42AFAE5F03BFBE5308536F0A42AFA99
:10041800E5F03BFBE5338534F0A42BFBE53285356D
:10042800F0A42BFBE5318536F0A42BFBE5308537AE
:10043800F0A42BFB8B338A3289318830D003D00269
:10044800D001D000D0D0D0F0D0E022C0E0C0D0C0E1
:1004580000C001C002C003C0047C20E4F8F9FAFB24
:10046800C3E53033F530E53133F531E53233F53274
:10047800E53333F533E833F8E933F9EA33FAEB33A4
:10048800FBC3E89534E99535EA9536EB9537401383
:10049800E89534F8E99535F9EA9536FAEB9537FB9E
:1004A800433001DCBBD004D003D002D001D000D04F
:1004B800D0D0E022537461746520202020202020B1
:1004C80020202020006F76656E202020202020200C
:1004D8002020202020005365742054656D70285416
:1004E80029206F72206C6F6164206D656D284C291E
:1004F80020202020200054004D00202020202020F3
:1005080020202020202020202020202020202020E3
:10051800202020005365742054656D7020313A0006
:1005280075817F75C1001200881200DC120173D238
:10053800AF120125D2007543007544FA7545007560
:100548004B00754A7DC0E07401141200C1D0E0C0B0
:1005580083C082C0E09004BC1200B4D0E0D082D046
:1005680083C0E07401141200BFD0E0C083C082C011
:10057800E09004CD1200B4D0E0D082D083C0E07403
:100588000E141200C1D0E0E5431201FCC0E0740E65
:10059800141200BFD0E0E4E54A1201FCC2A07801C1
:1005A8001201577880120157E95403F54FF5317855
:1005B80055120157894E8930D2A075320075330023
:1005C800C0027AFF120039D002C0027AFF12003945
:1005D800D002C0027AFF120039D002753450753546
:1005E800C37536007537001203C67534FF753503B9
:1005F80075360075370012045375348075350075EB
:100608003600753700120453753417753500753682
:100618000075370012031112024C85384985394A92
:10062800C0E0740A141200BFD0E0E5491201FCC012
:10063800E07408141200BFD0E0E54A1201FCC0E0E3
:10064800740E141200BFD0E0E4E54A1201FCE54341
:10065800B4001E754400754500208112C0027A322C
:10066800120039D0022081063081FD754301020550
:1006780085B401167544F47544017546007496C333
:10068800954A5003754302020585B4021375446404
:10069800754500743CC395465003754303020585B0
:1006A800B403167544F475440175460074DCC395AB
:1006B8004A5003754304020585B4041475446475EF
:1006C800450075462DC395465003754305020585BB
:1006D800754400754500743CC3954A400375430052
:0306E80002058583
:00000001FF
