:03000000020345B3
:03002B000202E5E9
:10002E00C0E0E8C4540F443012032FE8540F44309C
:10003E0012032FD0E022C2A078011203B4E5F0C45F
:10004E0054F0D2E7F81203B4E95403FF78551203C3
:10005E00B4D2A022C0E0C0D0C000C001C002E4F5FE
:10006E0038F539F53AF53BF53C7A20E533A2E779D8
:10007E00047830E633F608D9FA79057838E636D4BE
:10008E00F608D9F9DAE5D002D001D000D0D0D0E010
:10009E0022C0E0C0D0C000C001C002E4F538F5397E
:1000AE00F53AF53BF53C7A20E533A2E77904783052
:1000BE00E633F608D9FA79057838C0D0E62433202D
:1000CE00E70224D020E30224FDD0D033F608D9EA8B
:1000DE00DAD6D002D001D000D0D0D0E022C0E0C01D
:1000EE00D0C000C001C0027A207905C3783CE61367
:1000FE00C0D030E70224D030E30224FDF618D0D071
:10010E00D9EC79047833E613F618D9FADADBD00293
:10011E00D001D000D0D0D0E022C0E0C0D0E5302554
:10012E0034F530E5313535F531E5323536F532E534
:10013E00333537F533D0D0D0E022C0E0C0D0C3E5A0
:10014E00309534F530E5319535F531E5329536F5A6
:10015E0032E5339537F533D0D0D0E022C0E0C0D0B1
:10016E00C3E5309534E5319535E5329536E5339571
:10017E00379200D0D0D0E022C0E0C0D0C3E5349595
:10018E0030E5359531E5369532E53795339200D029
:10019E00D0D0E022C0E0C0D0C200C3E534953070AC
:1001AE0014E5359531700EE53695327008E53795C4
:1001BE00337002D200D0D0D0E0221201A220000370
:1001CE00020186221201A220000302016A22C0E06F
:1001DE00C0F0C0D0C000C001C002C003E5308534FD
:1001EE00F0A4F8A9F0E5318534F0A429F9E435F04E
:1001FE00FAE5308535F0A429F9E5F03AFAE433FB57
:10020E00E5328534F0A42AFAE5F03BFBE53185357D
:10021E00F0A42AFAE5F03BFBE5308536F0A42AFA85
:10022E00E5F03BFBE5338534F0A42BFBE532853559
:10023E00F0A42BFBE5318536F0A42BFBE53085379A
:10024E00F0A42BFB8B338A3289318830D003D00255
:10025E00D001D000D0D0D0F0D0E022C0E0C0D0C0CD
:10026E0000C001C002C003C0047C20E4F8F9FAFB10
:10027E00C3E53033F530E53133F531E53233F53260
:10028E00E53333F533E833F8E933F9EA33FAEB3390
:10029E00FBC3E89534E99535EA9536EB953740136F
:1002AE00E89534F8E99535F9EA9536FAEB9537FB8A
:1002BE00433001DCBBD004D003D002D001D000D03B
:0402CE00D0D0E0228A
:1002D20075C80075CBA975CA9AE4F53DF53ED2AD55
:1002E200D2CA22C2CFB2B6C0E0C0D0053DE53D7051
:1002F20002053EE53DB4E80CE53EB40307D201E455
:10030200F53DF53ED0D0D0E032D2A2C2A32279DEB2
:1003120078A6D8FED9FAC28E53890F438920438723
:1003220080758DF4758BF4D28E759852223099FDBA
:10033200C299F59922E493600612032FA380F62254
:100342000D0A0075817F75C1001202D2D2AF12036D
:1003520010D2013001FDC20179001203B4753403D9
:10036200753500753600753700790075F00012009A
:1003720044753000753100753200753300893012D2
:1003820001DC120062C000A83B12002ED000C000A7
:10039200A83A12002ED000C000A83912002ED000B8
:1003A200C000A83812002ED0009003421203370278
:1003B2000355C0E079007A08E833F892A1D2A3A2EB
:0B03C200A2E933F9C2A3DAF0D0E02278
:00000001FF
